:020000040800F2
:10000000680600204D0200085F050008570300083D
:100010005D050008530300085D06000800000000AD
:100020000000000000000000000000006305000860
:100030005503000800000000610500086505000880
:1000400067020008670200086702000867020008EC
:1000500067020008670200086702000867020008DC
:1000600067020008670200086702000867020008CC
:1000700067020008670200086702000867020008BC
:1000800067020008670200086702000867020008AC
:10009000670200086702000867020008670200089C
:1000A000670200086702000867020008670200088C
:1000B000670200086702000867020008670200087C
:1000C000670200086702000867020008670200086C
:1000D000670200086702000867020008670200085C
:1000E000670200086702000867020008670200084C
:1000F000670200086702000867020008670200083C
:10010000670200086702000867020008670200082B
:10011000670200086702000867020008670200081B
:10012000670200086702000867020008670200080B
:1001300067020008670200086702000867020008FB
:1001400067020008670200086702000867020008EB
:1001500067020008670200086702000867020008DB
:1001600067020008670200086702000867020008CB
:10017000670200086702000867020008000000002C
:1001800067020008670200086702000867020008AB
:10019000670200086702000867020008670200089B
:1001A00067020008670200086702000800F002F812
:1001B00000F03CF80AA090E8000C82448344AAF1C5
:1001C0000107DA4501D100F031F8AFF2090EBAE8C3
:1001D0000F0013F0010F18BFFB1A43F0010318477B
:1001E0003C0500005C050000103A24BF78C878C1C7
:1001F000FAD8520724BF30C830C144BF04680C602D
:10020000704700000023002400250026103A28BF74
:1002100078C1FBD8520728BF30C148BF0B60704778
:100220001FB500F075FA1FBD10B510BD00F058F8ED
:100230001146FFF7F5FF00F013FA00F076F803B46B
:10024000FFF7F2FF03BC00F07DF80000094880478B
:1002500009480047FEE7FEE7FEE7FEE7FEE7FEE7A8
:10026000FEE7FEE7FEE7FEE704480549054A064BC0
:10027000704700004D060008AD010008680000202E
:100280006806002068020020680200204FF000028B
:1002900000B5134694469646203922BFA0E80C507C
:1002A000A0E80C50B1F12001BFF4F7AF090728BF57
:1002B000A0E80C5048BF0CC05DF804EB890028BFD3
:1002C00040F8042B08BF704748BF20F8022B11F0FC
:1002D000804F18BF00F8012B704770477047704778
:1002E000754600F02BF8AE4605006946534620F0EF
:1002F0000700854618B020B5FFF7B6FFBDE82040DF
:100300004FF000064FF000074FF000084FF0000BD1
:1003100021F00701AC46ACE8C009ACE8C009ACE884
:10032000C009ACE8C0098D46704710B50446AFF36C
:1003300000802046BDE81040FFF781BF00487047AD
:100340000400002001491820ABBEFEE72600020091
:100350007047FEE77047FEE770B50C46054600F0B3
:10036000B4F8012801D0002070BD2146284600F0D5
:10037000ACF80128F9D0012070BD0000044908B58F
:100380000A6802430A6009680140009108BD000044
:1003900030380240F0B50A680F2692FAA2F2B2FA9B
:1003A00082F303248AE001279F4015EA07027DD0EB
:1003B0004D68012D01D0022D1BD18D68876892FAFE
:1003C000A2FCBCFA8CFC4FEA4C0C04FA0CFC27EAA9
:1003D0000C0792FAA2FCBCFA8CFC4FEA4C0C05FA12
:1003E0000CF52F438760CD684768554397432F43EB
:1003F00047600F69D0F80CC092FAA2F5B5FA85F5FE
:100400004FEA450E04FA0EF52CEA050C92FAA2F515
:10041000B5FA85F56D00AF404CEA070CC0F80CC08A
:100420004D68022D33D192FAA2F5B5FA85F5082D63
:1004300015D2D1F814C0056A92FAA2F7B7FA87F775
:10044000BF0006FA07F7BD4392FAA2F7B7FA87F79B
:10045000BF000CFA07FC45EA0C05056217E0D1F86D
:1004600014E0476A150A95FAA5FCBCFA8CFC4FEA21
:100470008C0C06FA0CFC95FAA5F5B5FA85F5AD00DD
:1004800027EA0C070EFA05FE47EA0E0747624D6899
:10049000076892FAA2FCBCFA8CFC4FEA4C0C04FAF6
:1004A0000CFE27EA0E0792FAA2F200E005E0B2FA8B
:1004B00082F2520095402F4307605B1C0A68154684
:1004C000DA407FF470AF0020F0BD0069814301D0B5
:1004D00000207047012070474FF47A71B0FBF1F1B2
:1004E0004FF0E020491E4161002181610521016139
:1004F00070470000014908607047000000000020BC
:1005000070B586B018216846FFF7C0FE0420FFF7DB
:1005100035FF8020FFF732FF0120FFF72FFF0D4D41
:100520004FF480663004A86140130024CDE9000434
:100530000220049069460848FFF72CFF012000962E
:10054000CDE901040394694628460494FFF722FF8D
:1005500006B070BD001C024000080240FEE7FEE746
:100560007047704770470000334810B5016821F0AC
:100570000F0141F002010160016801F00F01022941
:10058000FAD12E48016821F4404141F480410160D4
:10059000016821F4803101602948016821F0F801E7
:1005A00041F080010160016841F0010101600168D2
:1005B000C1F340010029FAD0214941F20842091D46
:1005C0000B68204C23401A430A600A6822F4403228
:1005D0000A60016841F0807101600168C1F3406107
:1005E0000029FAD016480830016821F0F0010160B6
:1005F000016821F4E05141F480510160016821F467
:1006000060410160016821F0030141F002010160D5
:10061000016801F00C010829FAD10B4C2046FFF7C4
:100620005BFF2046FFF766FF05488C30016821F02C
:100630008071016010BD0000003C0240007000406D
:10064000003802400080BFFF00B4C40402480168C3
:1006500041F470010160704788ED00E0FEE70000A2
:10066000254808B5016841F480410160006800F444
:10067000804000902048001F016841F080510160D7
:1006800000681E4900F08050009008684FF6FF0295
:1006900010401B4A40F44070104308600868C0F3E3
:1006A0000220C0F10702042A00D90422011D0729F3
:1006B00001D2002000E0C01E01219140491E81406E
:1006C0000801104981F8140DFFF74EFFFFF718FFDE
:1006D0004FF400560C4F0D4DF41031463846FFF7DD
:1006E0003BFE0028F9D0696924EA010001F4806129
:1006F00040EA0140A861F0E7443802400CED00E018
:100700000000FA050FE000E000080240001C024073
:100710004FF04070E1EE100A704700003C070008FF
:100720000000002004000000E80100084007000865
:100730000400002064060000040200080024F40005
:04000005080001AD41
:00000001FF
