:020000040800F2
:10000000380800204D020008E9150008FD1400081A
:10001000E5150008450400084D1C0008000000001C
:100020000000000000000000000000001D16000895
:1000300049040008000000001916000821160008F5
:1000400067020008670200086702000867020008EC
:1000500067020008670200086702000867020008DC
:1000600067020008670200086702000867020008CC
:1000700067020008670200086702000867020008BC
:1000800067020008670200086702000867020008AC
:10009000670200086702000867020008670200089C
:1000A000670200086702000867020008670200088C
:1000B000670200086702000867020008670200087C
:1000C000670200086702000867020008670200086C
:1000D000670200083D1B000867020008670200086D
:1000E000670200086702000867020008670200084C
:1000F000670200086702000867020008670200083C
:10010000670200086702000867020008670200082B
:100110006702000867020008E91600086702000885
:10012000670200086702000867020008670200080B
:1001300067020008670200086702000867020008FB
:1001400067020008670200086702000867020008EB
:1001500067020008670200086702000867020008DB
:1001600067020008670200086702000867020008CB
:10017000670200086702000867020008000000002C
:1001800067020008670200086702000867020008AB
:10019000670200086702000867020008670200089B
:1001A00067020008670200086702000800F002F812
:1001B00000F03CF80AA090E8000C82448344AAF1C5
:1001C0000107DA4501D100F031F8AFF2090EBAE8C3
:1001D0000F0013F0010F18BFFB1A43F0010318477B
:1001E000801F0000A01F0000103A24BF78C878C10B
:1001F000FAD8520724BF30C830C144BF04680C602D
:10020000704700000023002400250026103A28BF74
:1002100078C1FBD8520728BF30C148BF0B60704778
:100220001FB501F083FF1FBD10B510BD00F0D0F861
:100230001146FFF7F5FF01F045FD00F0EEF803B4BD
:10024000FFF7F2FF03BC00F0F5F800000948804713
:1002500009480047FEE7FEE7FEE7FEE7FEE7FEE7A8
:10026000FEE7FEE7FEE7FEE704480549054A064BC0
:1002700070470000D5160008AD01000838020020C4
:1002800038080020380400203804002053EA020C0B
:1002900000F069802DE9F04B4FF00006002B1FBFE6
:1002A000B3FA83F503FA05F424FA05F65E4012BFAB
:1002B0001643B2FA82F502FA05F4C5F120051EBF15
:1002C00022FA05FC44EA0C04203556EA044C4FEAB5
:1002D000144418BF641C4FF000084FF0000990420E
:1002E00071EB030C39D3002919BFB1FA81F701FA78
:1002F00007F6B0FA80F700FA07F6C7F120071EBF2D
:1003000020FA07FC46EA0C062037B6FBF4FCA7EB04
:100310000507103F07F01F0BCBF120062CFA06F65D
:100320000CFA0BFB44BFB3460026202FA4BF5E4649
:100330004FF0000B5BEA060C08BF4FF0010B19EB06
:100340000B0948EB0608ABFB027C06FB02CC0BFB5F
:1003500003CCC01B71EB0C01C1E70B4602464146C2
:100360004846BDE8F08B13B5084318BF4FF0FF3087
:100370000146AFF30080BDE81C4070474FF000021B
:1003800000B5134694469646203922BFA0E80C508B
:10039000A0E80C50B1F12001BFF4F7AF090728BF66
:1003A000A0E80C5048BF0CC05DF804EB890028BFE2
:1003B00040F8042B08BF704748BF20F8022B11F00B
:1003C000804F18BF00F8012B704770477047704787
:1003D000754600F02BF8AE4605006946534620F0FE
:1003E0000700854618B020B5FFF73EFFBDE8204066
:1003F0004FF000064FF000074FF000084FF0000BE1
:10040000AC46ACE8C009ACE8C009ACE8C009ACE84F
:10041000C00921F007018D46704710B50446AFF3BF
:1004200000802046BDE81040FFF709BF0048704734
:100430001000002001491820ABBEFEE72600020094
:1004400070470000FEE7000070470000EFF31080E7
:1004500072B600BFFEE7000070B5866D044600F07E
:1004600021F994F83510022925D105462068216C20
:10047000026822F016020260426922F080024261A4
:1004800009B9A16C19B1016821F008010160016886
:1004900021F00101016000BF20680068C0070ED094
:1004A00000F000F9401B0628F6D3202060650320E9
:1004B00084F835000CE080206065012008E0E06DE4
:1004C0003F2101FA00F0B060012084F835000020DF
:1004D000002184F8341070BD90F83510022909D13C
:1004E000052180F835100068016821F001010160E4
:1004F0000020704780214165012070472DE9F04FB1
:1005000083B000F13E4202F1FF724FEAB22242F2A2
:1005100000470192C4F202070A224FF0010E0025A3
:100520004FF0000A4FF00008B84208BF09220092BD
:100530000AE000BF08F101080AF1040AB8F1100F3F
:1005400005F1020500F0A4800C680EFA08FB14EA1D
:100550000B09EFD04C6804F0030CACF1010EBEF1B6
:10056000010F11D80322876802FA05F6CA68B7435B
:10057000AA403A4382604268C4F3001722EA0B02A1
:1005800007FA08F73A434260BCF1030F1CD0C26877
:1005900003238E6803FA05F7BA4306FA05F73A43D0
:1005A000BCF1020FC2600FD16FF0030202EA5802E1
:1005B00002440AF01C060F23176A03FA06F40B69BB
:1005C000A743B3403B431362026803234F68AB4029
:1005D0009A4307F00303AB401A4317F4403F4FF030
:1005E000010E0260A6D0002243F644030292C4F238
:1005F00002031A6843F6004442F480421A601A6803
:10060000C4F2010402F480420292029A28F003022A
:100610004FF6084B2244CFF6FF7B52F80B300AF01E
:100620000C070F26BE4023EA060C019B009E092BF7
:1006300038BF1E4606FA07F747EA0C0342F80B30AC
:10064000A2684B6842EA090743F60C4CDE0258BF29
:1006500022EA0907A760C4F2010CDCF800209E0220
:1006600042EA090758BF22EA0907CCF8007062681D
:100670009E0342EA090758BF22EA09076760226819
:10068000DB0342EA090358BF22EA0903236051E76A
:1006900003B0BDE8F08F0000002A08BF09048161A3
:1006A0007047000040F23020C2F20000006870473E
:1006B00040F2040040F23021C2F20000C2F2000118
:1006C00000780A68104408607047000080B543F65F
:1006D0000040C4F20200016841F400710160016849
:1006E00041F480610160016841F480710160032080
:1006F00000F080F80F2000F005F800F04BF8002023
:1007000080BD000010B586B00146362000220024CE
:1007100000F060F8362000F059F843F640000194EC
:10072000C4F20200016841F01001016000686946EE
:1007300000F010000190019801A800F04DF900F0C0
:1007400071F94DF683614000C4F21B31A0FB010139
:100750004FF0FF3000EB914140F25C1041F200029B
:10076000C2F20000C4F2000240F2E733C0E9002107
:10077000C0E90243046100F055FB10B1012006B04E
:1007800010BD40F25C10C2F2000000F07BFB06B02E
:1007900010BD000082B0002043F640010190C4F279
:1007A00002014A6842F480424A604A6802F4804288
:1007B0000192019A0090086840F080500860086833
:1007C00000F080500090009802B0704780B501F0B2
:1007D0003FFA80BD70B514460D46064601F048FA52
:1007E0002946224600F002FF0146304601F048FA51
:1007F00070BD000080B501F055FA80BD70B582B0C3
:100800000020019043F64000C4F202000168402637
:1008100041F0805101600068C4F20E2600F0805063
:100820000190019847F204050120C4F200053060F0
:10083000FFF738FF044600BF2868C00306D4FFF75F
:1008400031FF001BB0F57A7FF6D90EE00120706011
:10085000FFF728FF044600BF2868800308D4FFF78D
:1008600021FF001BB0F57A7FF6D9032002B070BDDE
:10087000002002B070BD00002DE9F041002800F01A
:100880008B8043F60808C4F202080446D8F8F8033F
:100890000D4600F00F00884207D288F8F853D8F8C8
:1008A000F80300F00F00A84276D12068810717D521
:1008B000410705D5D8F8001041F4E051C8F8001000
:1008C000010705D5D8F8001041F46041C8F80010C0
:1008D000D8F80010A26821F0F0011143C8F8001008
:1008E000C0073FD1D8F8F80300F00F00A84207D99D
:1008F00088F8F853D8F8F80300F00F00A8424BD15D
:100900002068410707D5D8F80010E26821F4E051CB
:100910001143C8F80010000708D5D8F80000216975
:1009200020F4604040EAC100C8F8000000F09EF8E2
:10093000D8F8001042F24612C1F30311C0F60002CB
:10094000515C40F2000220FA01F140F20800C2F2CC
:1009500000000068C2F200021160FFF7D3FE002021
:10096000BDE8F0816068811E022907D258F8081C92
:1009700089015CBF0120BDE8F08110E0012807D1AA
:1009800058F8081C89035CBF0120BDE8F08106E02F
:1009900058F8081C890702D40120BDE8F081D8F876
:1009A000001021F003010843C8F80000FFF77AFEA9
:1009B000064641F2883700BFD8F80000616800F0B1
:1009C0000C00B0EB810F8DD0FFF76CFE801BB8429E
:1009D000F2D90320BDE8F0810F22026043F608023D
:1009E000C4F20202136803F003034360136803F0C8
:1009F000F0038360136803F4E053C360D2F800C0CF
:100A00004FF4E05303EADC030361D2F8F80300F08B
:100A10000F0008607047000040F20000C2F20000C2
:100A20000068704780B5FFF7F7FF43F60801C4F28E
:100A30000201096842F25612C1F38221C0F6000297
:100A4000515CC84080BD000080B5FFF7E5FF43F66C
:100A50000801C4F20201096842F25612C1F34231A0
:100A6000C0F60002515CC84080BD000010B543F6DE
:100A70000404C4F20204606800F00C0008280AD0E4
:100A8000042819BF42F20040C0F2F40047F64000CB
:100A9000C0F27D1010BD206821682368490247F626
:100AA0004001C0F27D1100F03F02C3F388105CBF2B
:100AB00042F20041C0F2F401A1FB00010023FFF764
:100AC000E5FB21680222C1F3014102EB4101B0FBC9
:100AD000F1F010BD2DE9F04182B0002800F0A280B5
:100AE0000446007843F60006C007C4F2020643D06D
:100AF000B06800F00C00042805D1306880033BD5B5
:100B00006068C8BB8EE0B06800F00C00082802D115
:100B100070684002F1D46568B5F5A02F0AD0B5F52C
:100B2000803F0BD0306820F480303060306820F493
:100B3000802006E0306840F480203060306840F467
:100B400080303060FFF7AEFD002D054611D000BFAC
:100B50003068800310D4FFF7A5FD401B6428F7D947
:100B600022E100BFFFF79EFD401B64284FF0030009
:100B700055D830688003F5D4207880071AD5B0683E
:100B800010F00C0F09D0B06800F00C00082840F0FD
:100B90008A807068400200F186803068800702D544
:100BA000E06801283ED13068216920F0F80040EA71
:100BB000C10030602078000738D4207840074CD43A
:100BC000A5695DB3B06800F00C00082840F09E8075
:100BD000012D27D07068E16900F480028A4221D19A
:100BE000216A00F03F028A421CD147F6C071626A56
:100BF0000140B1EB821F15D1A26A0023CFF6FF732B
:100C000003EBC23200F440316FF30F02914209D17D
:100C1000E16A00F07060B0EB016F03D1002002B018
:100C2000BDE8F081012002B0BDE8F08160690028D4
:100C300040F20000C4F2472057D00121C0F8801EC6
:100C4000FFF730FD054600BF706F8007B5D4FFF792
:100C500029FD401B0228F7D9A6E0306C10F080581F
:100C60000AD100200190306C40F080503064306C2C
:100C700000F080500190019847F20007C4F200078D
:100C80003868C00524D4386840F480703860FFF7B5
:100C900009FD05463868C0051AD4FFF703FD401B5F
:100CA0000228F7D980E0E068002851D00020C4F283
:100CB000472001210160FFF7F5FC054630688007F9
:100CC0003FF571AFFFF7EEFC401B0228F6D96BE051
:100CD000A568052D50D0012D52D0306F20F00100B5
:100CE0003067306F20F004004DE00021C0F8801E16
:100CF000FFF7D8FC054600BF706F80077FF55DAF3A
:100D0000FFF7D0FC401B0228F6D94DE00027C4F2C3
:100D1000472700203866FFF7C5FC022D05460BD19A
:100D20003068800158D5FFF7BDFC401B02284FF00A
:100D30000300F5D973E700BF306880017FF56EAF1F
:100D4000FFF7B0FC401B02284FF00300F4D966E720
:100D50000020C4F2472000210160FFF7A3FC0546F4
:100D6000306880077FF526AFFFF79CFC401B022808
:100D70004FF00300F4D952E7306F40F004003067C1
:100D8000306F40F001003067FFF78CFC002D054606
:100D900041F2883714D000BF306F800713D4FFF7BB
:100DA00081FC401BB842F7D9032002B0BDE8F081B6
:100DB000FFF778FC401BB8424FF003003FF62FAF1F
:100DC000306F8007F4D4B8F1000F7FF4F9AE306CC7
:100DD00020F080503064F3E604F11C052FCD084369
:100DE0000021CFF6FF7140EA821001EBC3316FF3AF
:100DF0000F0140EA05600843706001203866FFF784
:100E000051FC0446306880013FF508AFFFF74AFC0B
:100E1000001B02284FF00300F4D900E770470000E0
:100E200070470000002804BF0120704710B5044639
:100E300090F83D0028B9002084F83C00204600F0DE
:100E40001FF8022084F83D002068211D00F054FCAA
:100E5000012084F8460084F83E0084F83F0084F8BE
:100E6000400084F8410084F8420084F8430084F88C
:100E7000440084F8450084F83D00002010BD0000C7
:100E80007047000090F83D1001291CBF01207047F9
:100E9000022180F83D10006841F2FF72C168C4F27F
:100EA0000002904241F00101C1600DDC40F2FF718F
:100EB000C4F20001884215DCB0F1804F29D040F225
:100EC0000041C4F2000122E040F2FF31C4F201010E
:100ED000884212DC41F60001C4F20001884218D0B9
:100EE000002112E040F60001C4F20001884210D057
:100EF00040F60041C4F2000109E044F20001C4F2EE
:100F00000101884205D040F20041C4F2010188424B
:100F100006D1816801F00701062904BF002070474F
:100F2000016841F001010160002070477047000036
:100F300010B5044600680169890744BFC1685FEACB
:100F4000817138D420680169490744BFC1685FEAEC
:100F500041713CD420680169090744BFC1685FEA58
:100F6000017141D420680169C90644BFC1685FEAC4
:100F7000C16145D420680169C9071CBFC1685FEA27
:100F8000C1714AD120680169090644BFC1685FEA9E
:100F9000016149D420680169490644BFC1685FEA1C
:100FA000416148D420680169890644BFC1685FEA8D
:100FB000816147D410BD6FF00201016101212177E9
:100FC0008069800745D02046FFF7B0FF47E06FF00B
:100FD0000401016102212177806910F4407F41D032
:100FE0002046FFF7A3FF43E06FF0080101610421F1
:100FF0002177C06980073ED02046FFF797FF40E089
:101000006FF01001016108212177C06910F4407F61
:101010003AD02046FFF78AFF3CE06FF00101016102
:10102000204600F03FF8ADE76FF0800101612046F7
:10103000FFF7F4FEAEE76FF040010161204600F0DB
:101040003DF8AFE76FF0200101612046FFF7E8FEB1
:1010500010BD204600F022F8204600F021F80020C4
:1010600020776FE7204600F019F8204600F018F8C6
:10107000002020776EE7204600F010F8204600F0B0
:101080000FF8002020776DE7204600F007F8204693
:1010900000F006F8002020776CE7000070470000A1
:1010A0007047000080B5006841F20001C4F2000101
:1010B000884208BFFFF7FCFA80BD000070470000BF
:1010C0007047000081B040F27C01C2F20001096863
:1010D000814201D001B0704740F27401C2F20001B8
:1010E0000968026C120702D500684068009002206F
:1010F000087201B070470000B0B582B003680446C2
:101100001868D9685A6900F02F05202D01F02005D4
:1011100005D125B1204600F0FBFB02B0B0BD5FEA6F
:10112000007C1EBF02F0010E01F4907212EB0E0261
:1011300048D1226B0840C1063BD5012A39D1002095
:10114000019018680190586801900198586940060C
:1011500040D4A08DE18DE28D002A1CBF401A5FEAC9
:10116000004101D102B0B0BD216851E8031F2268DF
:1011700021F4907142E80313002BF5D1216851E866
:10118000051F226821F0010142E80513002BF5D16B
:10119000202184F83E100021216300BF216851E81E
:1011A000031F226821F0100142E80313002BF5D140
:1011B00052E0010656D44006D4D5204600F09CFBF0
:1011C00002B0B0BDC20718BF11F480724FD1420700
:1011D00053D459E0A06B016849688AB2002AC1D093
:1011E000A38D9A42BED2E185C069B0F5807F30D030
:1011F000206850E8030F216820F4807041E8030262
:10120000002AF5D1206850E8050F216820F0010080
:1012100041E80502002AF5D1206850E8050F216851
:1012200020F0400041E80502002AF5D1202084F892
:101230003E000020206300BF206850E8030F2168B3
:1012400020F0100041E80302002AF5D1A06BFFF75F
:1012500003F9A08DE18D401A81B22046FFF730FFDF
:1012600002B0B0BD204600F03FFC02B0B0BD226C21
:1012700042F001022264420706D5BEF1000F03D0FE
:10128000226C42F002022264820706D5BEF1000FF2
:1012900003D0226C42F004022264BCF1000F06D598
:1012A0005EEA050203D0226C42F008022264226C3E
:1012B000002A3FF457AF0840800602D5204600F0D0
:1012C00027FB20684069216C00F0400001F0080114
:1012D000401827D0204600F0E7FA20684069400611
:1012E0001BD500BF206850E8050F216820F04000A2
:1012F00041E80502002AF5D1A06B70B141F69901D1
:10130000C0F600010165FFF7E7F800283FF42AAFB7
:10131000A06B016D884702B0B0BD2046FFF7D2FE3A
:1013200002B0B0BD2046FFF7CDFE0020206402B021
:10133000B0BD0000002804BF0120704710B504466E
:1013400090F83D0028B9002084F83C00204600F0C9
:1013500021F8242084F83D002068C16821F4005160
:10136000C160204600F036FB2068016921F49041FD
:101370000161416921F02A014161C16841F40051D4
:10138000C16000202021206484F83D1084F83E10C4
:1013900010BD000080B586B041F200010068C4F2C3
:1013A0000101002288420592CDE9032202920192B6
:1013B00001D006B080BD43F630000092C4F20200B6
:1013C000436943F010034361436903F01003009342
:1013D000009B0092036843F001030360006800F083
:1013E0000100009000984FF4C06001900220CDE908
:1013F0000202032004900720059001F5704001A926
:10140000FFF77CF8252000210022FFF7E3F92520D3
:10141000FFF7DCF906B080BD10B590F83E30202B08
:101420000BD100294FF0010418BF002A01D120463A
:1014300010BD90F83C30012B01D1022010BD0123DA
:10144000002480F83C30046300F032FB204610BDDD
:1014500040F27C01C2F200010968814218BF704766
:1014600040F27400C2F2000000680121017270476E
:10147000034690F83D0020280AD100294FF00100D2
:1014800018BF002A00D1704793F83C00012801D111
:10149000022070471962002021219A84DA8418649E
:1014A00083F83D10196883F83C00CA6842F0800256
:1014B000CA60704740F28801C2F2000109688142A7
:1014C00018BF704740F28000C2F20000006801219E
:1014D00080F8201041884269C3680A4442619A42F8
:1014E00024BF8268426190F821201AB1022180F85D
:1014F000211070470288511A01807047FEE70000F2
:10150000F0B587B0002643F630000696CDE90466B4
:10151000CDE902660196C4F20200016841F600447A
:1015200041F0040101600168C4F2020401F0040109
:101530000191019901960168002241F0800101604A
:1015400001684FF4406701F0800101910199019613
:10155000016841F001010160016801F001010191A0
:1015600001990196016841F00201016000684FF4A1
:10157000406100F00200019001982046FFF78CF8CE
:101580004FF4005002ADCDE90206A4F5A050294663
:101590000496FEF7B3FF0120CDE903062046294655
:1015A00002970596FEF7AAFF07B0F0BD80B540F29E
:1015B000A41041F20001C2F20000C4F201010023B4
:1015C0004FF00C0C4FF4E13280E80E00C0E9033319
:1015D000C0E905C3C361FFF7ADFE002818BFFEF7E1
:1015E00035FF80BDFEE70000FEE7000000F00700C9
:1015F00080F00703042B28BF04234FF0FF3C03387F
:101600000CFA03F338BF0020994381400CFA00F034
:1016100022EA00000843704770470000704700004E
:101620007047000010B592B006AC20463021FEF79E
:10163000A5FE002043F640010590CDE90300CDE969
:1016400001000090C4F202010A6842F080520A6070
:10165000096801F0805100910099009047F2000064
:10166000C4F20000016841F44041016000684FF499
:10167000800100F4404000900098012006904FF453
:1016800080300D910F21079002200E91D8210C90EF
:10169000CDE90F10042011902046FFF71BFAB0B9D6
:1016A000FFF7ACF898B90F200190022002900020BB
:1016B00003904FF4A05004904FF48050059001A87F
:1016C0000521FFF7D9F8002804BF12B010BDFEF7BE
:1016D000BDFE00004EF68850CEF20000016841F4D5
:1016E000700101607047000080B540F25C10C2F2EA
:1016F0000000FFF71DFC80BD10B540F6FF3E0368FB
:10170000C4F2000E40F2004C7045C4F2010C0FDC34
:10171000B0F1804F19D040F20042C4F20002904272
:1017200013D040F60002C4F2000290420DD010E047
:1017300040F60042C4F20002904206D0604504D058
:101740000022C4F20102904203D14A6823F07003E0
:10175000134341F6FF72C4F2000290420DDC704563
:101760001FDCB0F1804F41D040F20042C4F20002D1
:1017700090423BD040F6000221E043F6FF72C4F2F3
:101780000102904220DC42F20002C4F200029042C8
:101790002CD00022C4F20102904227D0604525D00F
:1017A00028E040F60042C4F2000290421ED041F60A
:1017B0000002C4F20002904218D041F60042C4F286
:1017C0000002904212D015E044F20002C4F201027D
:1017D00090420BD044F60002C4F20102904205D0C0
:1017E00044F20042C4F20102904203D1CA6823F4D9
:1017F0004073134323F080024B69D1F800E08C68FA
:101800001A430260C46240F48062C0F828E0624576
:1018100004BF096901630121416110BD10B54FF09A
:10182000000C2AB91EE000BF1FFA8CF3934218D2B5
:10183000D0E904E39E4501D103889BB911F8013B2F
:101840000EF1010404618EF80030D0E904340CF18B
:10185000010CA34206D0C468A342E5D183680361AA
:10186000E2E79446012180F821100188614401805B
:1018700090F82130022B02D14388C91A01801FFA47
:101880008CF30021934280F8211028BF10BD81887D
:101890000131818010BD000080B5806B0021C185C1
:1018A000C184FFF70FFC80BD016851E8031F026887
:1018B00021F4907142E80313002BF5D1016851E83F
:1018C000051F026821F0010142E80513002BF5D144
:1018D000016B01290AD100BF016851E8031F0268AA
:1018E00021F0100142E80313002BF5D1202180F8EC
:1018F0003E1000210163704780B50168CA6822F07C
:101900004002CA60202180F83D10FFF7D3FD80BD62
:1019100080B582B090F83E1022291ED18268B2F5BF
:10192000805F02D10169002948D0816AB2F5805FE9
:1019300007D00AB9026922B10268526802F07F0238
:1019400001E0026852680A700121826A11448162D2
:10195000C18D01390A04C18501D002B080BD016882
:10196000CA6822F02002CA60CA6822F48072CA6083
:101970004A6922F001024A61202180F83E10016B81
:10198000012923D100210163016851E8031F026886
:1019900021F0100142E80313002BF5D101680A6819
:1019A000D20606D5002201920A6801924968019187
:1019B0000199818DFFF784FB02B080BD0168826AC6
:1019C00049686FF35F2111800221BEE7FFF740FDF8
:1019D00002B080BD10B504460068D4E902C2236994
:1019E000016921F4405111430161626943EA0C012C
:1019F000E3691143C268194349F20C639A431143E6
:101A0000C1604169A26921F4407141F20043114370
:101A100040F48062C4F201039A42416102D1FFF7AF
:101A200013F801E0FEF7FEFFE16963681922B1F5E2
:101A3000004FA0FB02011CD15A00DB0FFEF726FC71
:101A400048F21F51C5F2EB11A0FB01235A096FF0B8
:101A5000630302FB0300322303EBC000A0FB010180
:101A60004FF4F87000EA111000EB0210C1F34211BC
:101A70001AE09A009B0FFEF709FC48F21F51C5F2CD
:101A8000EB11A0FB01235A096FF0630302FB030073
:101A9000322303EB0010A0FB0101F02000EA5110FB
:101AA00000EB0210C1F3431122680843906010BD9F
:101AB00081628285C28500212222016480F83E2055
:101AC000026980F83C1022B10168CA6842F4807251
:101AD000CA600168486940F001004861C86840F088
:101AE00020020020CA60704790F83D10212923D1C0
:101AF0008168B1F5805F01D1016931B1016A026885
:101B00004B1C03620978516007E0016A036831F8F1
:101B1000022B6FF35F225A600162C18C01390A0403
:101B2000C18418BF70470068C16821F08001C1609E
:101B3000C16841F04001C1607047000080B540F2CB
:101B4000A410C2F20000FFF7D7FA80BD40F28C006B
:101B500040F29801C2F20000C2F20001C0E9001197
:101B60000221017240F27801C2F20001098840F2BC
:101B70007402C2F2000242F8210040F27C0040F2FE
:101B8000A412C2F20000C2F2000240F82120704705
:101B900080B590F82010A9B10288002A08BF80BD46
:101BA000002180F82010C36841695B1A1FFA83FC8A
:101BB000944508D2438040F2A410C2F2000062466D
:101BC000FFF756FC80BD428040F2A410C2F2000034
:101BD000FFF74EFC80BD000010B540F2DC0340F280
:101BE000B800C2F20003C2F2000003F1800241F625
:101BF0001D0E41F6913400214FF4000CC0F6000E8A
:101C0000C0F60004C0E902320222C0E9001CC0E9AB
:101C10000433C0E906E480F8202080F8211040F267
:101C20008401C2F20001098840F28002C2F200027F
:101C300042F8210040F2880040F2A412C2F20000F3
:101C4000C2F2000240F8212010BD0000FEE70000B3
:101C5000002848BF704700F01F01012202FA01F17D
:101C60004EF200124009CEF2000242F820107047F6
:101C70004EF60C50CEF200000068C0F30220704710
:101C80004EF6145300F00F02CEF2000309011A447D
:101C900000F16043B0F1FF3FC8BF03F5644211702B
:101CA000704700004EF60C51CEF200010A684FF664
:101CB000FF031A4060F30A2242F0806040F0FD709A
:101CC00008607047FEF702FDFFF7ACFCFFF718FC59
:101CD000FFF76CFC00F004F800F00AF8FCE70000E5
:101CE00080B5FFF733FFFFF777FF80BD00000000EE
:101CF0002DE9F04740F28C04C2F20004207A40F251
:101D0000E8180228C2F200080CD1216800206160A6
:101D1000C8E90000207240F2A410C2F200000122C3
:101D2000FFF77AFB207A012810D100206268C3F601
:101D3000F0700021C8E90010501CC8F82020606035
:101D4000107888F824000220517020729FED360B25
:101D500098F824209FED361B56EC107B312A314633
:101D600038465AEC115B04BF5146284641EC100B33
:101D7000322A04BF56462F4646EC117B41F61449E1
:101D800088ED040B88ED061BC4F20209D9F8002087
:101D900022F4406400F098F844EA80243846314642
:101DA00000F092F840F2700144EAC020C2F2000153
:101DB000088080B2C9F8000098ED000B2A4656EC66
:101DC000107B38463146534600F086F968B9D8F89A
:101DD00020403846314600F077F8024640F2B8001D
:101DE000C2F200002146FFF719FD40F2B804C2F22A
:101DF0000004208840B10020C8E9020040F2B80089
:101E0000C2F20000FFF7C4FE94F82000002808BFCB
:101E1000BDE8F087608800F086F841EC100B88ED93
:101E2000020BBDE8F08700BF000000000000F03F9B
:101E30000000000000000000491058BFC1F14041FF
:101E40005B1058BFC3F140438B42EFF300807047F3
:101E500051EA030C17D41CF5801F58BFBCF5801F36
:101E600000F10680994218BF704708BF9042704742
:101E700007D711F5801F58BF13F5801F19D4994259
:101E80007047894270471CF5801F08D5BCF5801F3C
:101E9000F7D58B4218BF704708BF824270474FF496
:101EA000001C1CEB410F38BF1CEB430F01D28B42CF
:101EB000704770B500F0C2F8922449004FF000510D
:101EC0004FF08053FFF7B8BF4FEA41034FEA535337
:101ED000A3F58063D3F11E03C8BFD3F1210C0CDD41
:101EE0004FF0004242EAC12242EA505232FA03FC69
:101EF0008CEAE17CACEBE1707047102BC4BF002092
:101F0000704703F5787CBCF1FF3F04D06FF00042CE
:101F100082EA2100704770B500F090F84992248061
:101F200000207047F2E7B0FA80F310FA03F10AD00C
:101F3000C3F11D0303F580634FEA03524FEA41509A
:101F400002EBD12170474FF00000704751EA030CBB
:101F500017D41CF5801F58BFBCF5801F00F1068008
:101F6000994218BF704708BF9042704707D711F5D4
:101F7000801F58BF13F5801F19D4994270478942BA
:101F800070471CF5801F08D5BCF5801FF7D58B4224
:101F900018BF704708BF824270474FF4001C1CEB0B
:101FA000410F38BF1CEB430F01D28B42704770B515
:101FB00000F044F8922449004FF080514FF0005354
:101FC000FFF73ABF51EA030C17D41CF5801F58BF26
:101FD000BCF5801F00F10680994218BF704708BF0A
:101FE0009042704707D711F5801F58BF13F5801F27
:101FF00019D499427047894270471CF5801F08D553
:10200000BCF5801FF7D58B4218BF704708BF8242CE
:1020100070474FF4001C1CEB410F38BF1CEB430F03
:1020200001D28B42704770B500F008F89224490045
:102030004FF000514FF08053FFF7FEBE0EF1020E3D
:102040002EF0030E5EF8046B364205D4012A43EBF2
:10205000030515F5001F12D8012841EB010C1CF5F2
:10206000001F0CD80ED14FEAD17C0CEB4C0C0CF1BC
:10207000020C15F5001F08BF4CEBD37C04E04FF0B9
:10208000080C01E04FEAD37C0CEB4C0526FA05F670
:1020900006F00706B6F1040C06D20EEB860CBDE87E
:1020A00070404CF0010C6047DFE80CF0090B0202B5
:1020B0004FF00041A1F500214FF0000070BD19461E
:1020C0001046012851EB010418BFD4F5001484BF59
:1020D000002001F0004170BD10B5FFF7B9FE0CBF44
:1020E0000120002010BD10B5FFF7B2FE14BF012083
:1020F000002010BD10B5FFF729FF8CBF0120002084
:1021000010BD10B5FFF722FF2CBF0120002010BD2D
:1021100010B5FFF757FF94BF0120002010BD10B588
:10212000FFF750FF34BF0120002010BDF1EE100A70
:102130004FF6FF71C0F2C03120EA010040F040705C
:10214000E1EE100A704700000000000000000102EC
:102150000304060708090000000001020304000050
:10216000802100080000002010000000E8010008A5
:102170009021000810000020280800000402000838
:102180000024F40001000000100000000000000026
:04000005080001AD41
:00000001FF
