:020000040800F2
:1000000008040020C1010008A5090008B102000889
:10001000A1090008A9020008450B00080000000023
:10002000000000000000000000000000A10A00081D
:10003000AD02000800000000CD090008A50A000874
:10004000DB010008DB010008DB010008DB01000820
:10005000DB010008DB010008DB010008DB01000810
:10006000DB010008DB010008DB010008DB01000800
:10007000DB010008DB010008DB010008DB010008F0
:10008000DB010008DB010008DB010008DB010008E0
:10009000DB010008DB010008DB010008DB010008D0
:1000A000DB010008DB010008DB010008DB010008C0
:1000B000DB010008DB010008DB010008DB010008B0
:1000C000DB010008DB010008DB010008DB010008A0
:1000D000DB010008250B0008DB010008DB0100083C
:1000E000DB010008DB010008DB010008DB01000880
:1000F000DB010008DB010008DB010008DB01000870
:10010000DB010008DB010008DB010008DB0100085F
:10011000DB010008DB010008DB010008DB0100084F
:10012000DB010008DB010008DB010008DB0100083F
:10013000DB010008DB010008DB010008DB0100082F
:10014000DB010008DB010008DB010008DB0100081F
:10015000DB010008DB010008DB010008DB0100080F
:10016000DB010008DB010008DB010008DB010008FF
:10017000DB010008DB010008DB01000800000000D3
:10018000DB010008DB010008DB010008DB010008DF
:10019000DB010008DB010008DB010008DB010008CF
:1001A000DB010008DB010008DB010008DFF80CD0F0
:1001B00000F068F800480047C10B00080804002060
:1001C0000648804706480047FEE7FEE7FEE7FEE7F1
:1001D000FEE7FEE7FEE7FEE7FEE7FEE7110B00089D
:1001E000AD0100082DE9F05F0546002092469B46D0
:1001F00088460646814640241BE02846414647463D
:10020000224600F02FF853465A46C01A914110D3A7
:1002100011461846224600F016F82D1A67EB010821
:100220004F4622460120002100F00DF817EB00098F
:100230004E41201EA4F10104DFDC484631462A4627
:100240004346BDE8F09F202A04DB203A00FA02F181
:10025000002070479140C2F1200320FA03F31943B4
:1002600090407047202A04DB203A21FA02F0002156
:10027000704721FA02F3D040C2F1200291400843B6
:1002800019467047064C074D06E0E06840F0010350
:1002900094E8070098471034AC42F6D3FFF78AFF82
:1002A000800C0008A00C0008FEE70000704700006A
:1002B000FEE7000081B043F63001C4F202010A6893
:1002C00002430A60096808400090009801B0704736
:1002D00081B043F63000C4F20200016841F0010130
:1002E0000160006800F001000090009801B07047C4
:1002F00081B043F64000C4F20200016841F0805131
:100300000160006800F080500090009801B07047D4
:1003100081B043F64400C4F20200016841F4804118
:100320000160006800F480400090009801B07047C0
:1003300081B043F64400C4F20200016841F01001AC
:100340000160006800F010000090009801B0704754
:1003500043F60040C4F20200006800F00F0070474E
:1003600043F60040C4F202000168022262F3030176
:10037000016070472DE9F0410C46096891FAA1F23D
:10038000B2FA82F731FA07F235D005464FF001088C
:100390000EE062692846314600F040F8626828465F
:1003A000314600F04DF82168013731FA07F022D0CC
:1003B00008FA07F011EA0006F5D060680138012854
:1003C00009D8A2682846314600F060F8E26828465D
:1003D000314600F045F822692846314600F046F8DB
:1003E00060680228DAD13006D3D0626928463146E7
:1003F00000F004F8D2E70020BDE8F08191FAA1F105
:10040000B1FA81F1D0F820C089000F238B402CEA8B
:10041000030302FA01F1194301627047090A91FAD4
:10042000A1F1B1FA81F1D0F824C089000F238B40EB
:100430002CEA030302FA01F11943416270470000FC
:1004400091FAA1F1B1FA81F1D0F800C0490003237B
:100450008B402CEA030302FA01F119430160704753
:1004600043688B43514319434160704791FAA1F1AE
:10047000B1FA81F1D0F80CC0490003238B402CEA7B
:10048000030302FA01F11943C160704791FAA1F127
:10049000B1FA81F1D0F808C0490003238B402CEA5F
:1004A000030302FA01F119438160704780B500F03F
:1004B00001F880BD44F6D351C1F26201A0FB0101F5
:1004C0004FF0FF3000EB91104EF21001CEF2000120
:1004D00048600020886005200860704747F20000EF
:1004E000C4F20000016821F480310160704700000F
:1004F00047F20000C4F200000168012262F38F316C
:100500000160704743F60800C4F20200006800F082
:10051000F000704743F60800C4F20200006800F4DF
:10052000E050704743F60800C4F20200006800F48F
:100530006040704743F60800C4F20200006800F013
:100540000C00704743F60800C4F20200006800F097
:100550000C00704710B5044600F064FA206000F00B
:1005600037FA606000F042FA6168A060084600F067
:100570004BFAE06010BD000043F60000C4F2020038
:10058000016841F4803101607047000043F60000CB
:10059000C4F202000068C0F34040704743F6040014
:1005A000C4F20200016848F20002CFF6BF721140A7
:1005B00041F60F02C0F2400211430160016821F4CC
:1005C000403101607047000043F60000C4F20200B1
:1005D000016841F0807101607047000043F604003B
:1005E000C4F20200006800F03F00704743F60400C8
:1005F000C4F20200006800F48000704743F6040073
:10060000C4F202000068C0F38810704743F604008B
:10061000C4F20200006800F44030704743F6000066
:10062000C4F202000068C0F34060704743F608005F
:10063000C4F20200016821F0F0010160704700007F
:1006400043F60800C4F202000168042262F38C2120
:100650000160704743F60800C4F2020001680422FA
:1006600062F34F310160704743F60800C4F20200A4
:100670000168022262F301010160704743F68C00B9
:10068000C4F20200016821F080710160704700002F
:1006900040F20401C2F200010860704741F210000C
:1006A000C4F20100016821F490410160416821F029
:1006B0002A0141607047000041F20C00C4F20100C1
:1006C000016841F4005101607047000041F20C00E4
:1006D000C4F2010050E8001F41F0100140E8001290
:1006E000002AF7D17047000041F20C00C4F201006B
:1006F00050E8001F41F0200140E80012002AF7D125
:1007000070470000F0B585B00F46044600F088F849
:1007100010B1012005B0F0BDE06849F20C618843DA
:10072000D7E90121D7E903351043BE6918432843AF
:100730003043E060204600F0CBF87969204600F0B5
:10074000C1F801A8FFF706FF47F2FF70C4F20000EE
:1007500084424FF000010EDC44F6FF30C4F200008A
:10076000844217DC44F20040C4F20000844220D0EE
:1007700044F6000016E040F6FF70C4F20100844227
:100780001ADC47F60000C4F20000844211D047F69C
:10079000004007E044F60040C4F20000844208D064
:1007A00045F20000C4F20000844208BF0399A9B9D1
:1007B000AFE7039991B9ACE741F20040C4F2010000
:1007C000844208D041F20000C4F20100844208BF14
:1007D000049919B99DE7049900299AD03B68002B28
:1007E00097D0BA69204600F027F8002005B0F0BD88
:1007F00041F20000C4F201000068C0F340107047ED
:1008000041F20000C4F201000068C0F3C01070475C
:1008100041F20000C4F201000068C0F3C01070474C
:10082000C068C0F34030704741F20400C4F20100D8
:100830000068C0B27047000010B504461920B2F538
:10084000004FA1FB00011CD15A00DB0FFFF7CAFCCF
:1008500048F21F51C5F2EB11A0FB01235A096FF0BA
:10086000630302FB0300322303EBC000A0FB010182
:100870004FF4F87000EA111000EB0210C1F34211BE
:100880001AE09A009B0FFFF7ADFC48F21F51C5F22A
:10089000EB11A0FB01235A096FF0630302FB030075
:1008A000322303EB0010A0FB0101F02000EA5110FD
:1008B00000EB0210C1F343114FF6F07210400844F0
:1008C000A06010BD426922F440721143416170473B
:1008D000026922F4405211430161704741F2040160
:1008E000C4F201010860704741F20401C4F2010141
:1008F0000860704780B50420FFF7DCFC8020FFF71C
:10090000D9FC0120FFF7D6FC80BD000080B500F0C7
:1009100023F9002100F048F80146252000F024F9D1
:1009200000F012F980BD0000B0B58EB000250D9525
:10093000CDE90B55CDE90955CDE90755CDE905556B
:10094000CDE90355CDE90155FFF7F2FCFFF7C0FCF7
:100950004FF4C060019002200290032041F2000495
:10096000CDE903050720C4F20104069004F57040A8
:1009700001A90595FFF7FEFC4FF4E130CDE907052D
:100980000C20CDE90B0507A92046CDE909550D95A9
:10099000FFF7B8FEFFF782FEFFF78EFE0EB0B0BD88
:1009A000FEE70000FEE7000000F0070080F007020D
:1009B000042A28BF04224FF0FF33033803FA02F25F
:1009C00038BF0020914301FA00F0704770470000E3
:1009D00010B50446FFF796FD40F66841C0F30310DA
:1009E000C0F60001085C24FA00F010BD10B5044602
:1009F000FFF790FD40F67841800AC0F60001085CE0
:100A000024FA00F010BD000010B50446FFF78AFD7F
:100A100040F67841400BC0F60001085C24FA00F073
:100A200010BD000080B5FFF78DFD08280AD004280E
:100A300019BF42F20040C0F2F40047F64000C0F295
:100A40007D1080BD082000F001F880BD10B504467F
:100A5000FFF7CCFD082C1CBF002010BD42F2004463
:100A6000C0F2F404B0F5800F04BF47F64004C0F2B2
:100A70007D14002804BF42F20044C0F2F404FFF7E2
:100A8000ADFDB4FBF0F4FFF7B9FD4443FFF7BEFD45
:100A9000000C022101EB4000B4FBF0F010BD00009F
:100AA000704700007047000010B5FFF759FC00BF09
:100AB000FFF74EFC0228FBD1FFF71AFDFFF70EFDF2
:100AC000FFF75AFDFFF762FD0128FBD1FFF766FD36
:100AD000FFF77AFDFFF7A2FD0128FBD1FFF7A6FD86
:100AE000FFF7AEFDFFF7B6FDFFF7BEFDFFF722FDF6
:100AF0000828FBD14BF20044C0F2C4442046FFF763
:100B0000D5FC2046FFF7C4FDFFF7B8FD10BD00007F
:100B10004EF68850CEF20000016841F47001016089
:100B20007047000080B5FFF763FE002808BF80BD56
:100B3000FFF77AFEFFF7D8FEFFF76AFE0028FBD02A
:100B400080BD0000FEE700004EF20410CEF200006F
:100B500020210160704700004EF60C50CEF20000DC
:100B60000068C0F302207047002806D44EF200420D
:100B70000901CEF200028154704708014EF623515C
:100B8000CEF20001087070474EF60C50CEF2000015
:100B900001684FF6FF02114040F20032C0F2FA52F3
:100BA000114301607047000010B50446C0B2FFF762
:100BB00095FE00BFFFF724FE0028FBD0204610BDA5
:100BC000FFF7A6FBFFF794FBFFF7DEFFFFF7C4FF7D
:100BD0000F21FFF7E9FE01464FF0FF30FFF7C4FF9A
:100BE000FFF762FFFFF786FEFFF79EFEFFF78EFE20
:100BF000FFF77AFDFFF76AFD012504A4204600F007
:100C000021F8013DFAD000BFFEE700BF43616E202E
:100C1000796F752068656172206D657E203C3D3D71
:100C20003D0D000002E008C8121F08C1002AFAD1D9
:100C300070477047002001E001C1121F002AFBD15C
:100C40007047000010B5044601E0FFF7ADFF14F84F
:100C5000010B04490028F8D1BDE810400A20FFF735
:100C6000A3BF000000000020000000000000000002
:100C70000102030406070809000000000102030442
:100C8000A00C00080000002008000000240C000850
:100C9000A80C00080800002000040000340C000824
:080CA000000000000024F40034
:04000005080001AD41
:00000001FF
