:020000040800F2
:10000000780600204D0200088D0D0008C50C000880
:10001000890D000845040008B10E0008000000002A
:10002000000000000000000000000000C10D0008FA
:100030004904000800000000BD0D0008F50D00088F
:1000400067020008670200086702000867020008EC
:1000500067020008670200086702000867020008DC
:1000600067020008670200086702000867020008CC
:1000700067020008670200086702000867020008BC
:1000800067020008670200086702000867020008AC
:10009000670200086702000867020008670200089C
:1000A000670200086702000867020008670200088C
:1000B000670200086702000867020008670200087C
:1000C000670200086702000867020008670200086C
:1000D000670200086702000867020008670200085C
:1000E0004D04000867020008670200086702000864
:1000F000670200086702000867020008670200083C
:10010000670200086702000867020008670200082B
:10011000670200086702000867020008670200081B
:10012000670200086702000867020008670200080B
:1001300067020008670200086702000867020008FB
:1001400067020008670200086702000867020008EB
:1001500067020008670200086702000867020008DB
:1001600067020008670200086702000867020008CB
:10017000670200086702000867020008000000002C
:1001800067020008670200086702000867020008AB
:10019000670200086702000867020008670200089B
:1001A00067020008670200086702000800F002F812
:1001B00000F03CF80AA090E8000C82448344AAF1C5
:1001C0000107DA4501D100F031F8AFF2090EBAE8C3
:1001D0000F0013F0010F18BFFB1A43F0010318477B
:1001E000B00D0000D00D0000103A24BF78C878C1CF
:1001F000FAD8520724BF30C830C144BF04680C602D
:10020000704700000023002400250026103A28BF74
:1002100078C1FBD8520728BF30C148BF0B60704778
:100220001FB500F0A0FE1FBD10B510BD00F0D0F846
:100230001146FFF7F5FF00F077FE00F0EEF803B48B
:10024000FFF7F2FF03BC00F0F5F800000948804713
:1002500009480047FEE7FEE7FEE7FEE7FEE7FEE7A8
:10026000FEE7FEE7FEE7FEE704480549054A064BC0
:10027000704700009D0E0008AD01000878000020C6
:1002800078060020780200207802002053EA020C51
:1002900000F069802DE9F04B4FF00006002B1FBFE6
:1002A000B3FA83F503FA05F424FA05F65E4012BFAB
:1002B0001643B2FA82F502FA05F4C5F120051EBF15
:1002C00022FA05FC44EA0C04203556EA044C4FEAB5
:1002D000144418BF641C4FF000084FF0000990420E
:1002E00071EB030C39D3002919BFB1FA81F701FA78
:1002F00007F6B0FA80F700FA07F6C7F120071EBF2D
:1003000020FA07FC46EA0C062037B6FBF4FCA7EB04
:100310000507103F07F01F0BCBF120062CFA06F65D
:100320000CFA0BFB44BFB3460026202FA4BF5E4649
:100330004FF0000B5BEA060C08BF4FF0010B19EB06
:100340000B0948EB0608ABFB027C06FB02CC0BFB5F
:1003500003CCC01B71EB0C01C1E70B4602464146C2
:100360004846BDE8F08B13B5084318BF4FF0FF3087
:100370000146AFF30080BDE81C4070474FF000021B
:1003800000B5134694469646203922BFA0E80C508B
:10039000A0E80C50B1F12001BFF4F7AF090728BF66
:1003A000A0E80C5048BF0CC05DF804EB890028BFE2
:1003B00040F8042B08BF704748BF20F8022B11F00B
:1003C000804F18BF00F8012B704770477047704787
:1003D000754600F02BF8AE4605006946534620F0FE
:1003E0000700854618B020B5FFF73EFFBDE8204066
:1003F0004FF000064FF000074FF000084FF0000BE1
:10040000AC46ACE8C009ACE8C009ACE8C009ACE84F
:10041000C00921F007018D46704710B50446AFF3BF
:1004200000802046BDE81040FFF709BF0048704734
:100430001000002001491820ABBEFEE72600020094
:1004400070470000FEE700007047000080B54FF4E1
:10045000005000F039F880BDEFF3108072B600BF95
:10046000FEE70000B0B5044600F014F9054640F27E
:100470000400C2F200000078611C18BF044400BFF1
:1004800000F008F9401BA042FAD3B0BD10B540F609
:100490000004C4F2020420464FF4005100F0EEF8CC
:1004A000012801D1002208E020464FF4005100F05D
:1004B000E5F8002818BF10BD012204F5A0504FF444
:1004C000806100F0E1F810BD80B543F61441C4F23C
:1004D00001010A68024208BF80BD0860FFF7D6FF2D
:1004E00080BD00002DE9F04F83B000F13E4202F1E3
:1004F000FF724FEAB22242F200470192C4F20207B1
:100500000A224FF0010E00254FF0000A4FF00008BC
:10051000B84208BF092200920AE000BF08F10108B2
:100520000AF1040AB8F1100F05F1020500F0A280EB
:100530000C680EFA08FB14EA0B09EFD04C6804F0C3
:10054000030CACF1010EBEF1010F11D80322876834
:1005500002FA05F6CA68B743AA403A438260426885
:10056000C4F3001722EA0B0207FA08F73A43426085
:10057000BCF1030F1CD0C26803238E6803FA05F791
:10058000BA4306FA05F73A43BCF1020FC2600FD135
:100590006FF0030202EA580202440AF01C060F231D
:1005A000176A03FA06F40B69A743B3403B4313628F
:1005B000026803234F68AB409A4307F00303AB4044
:1005C0001A4317F4403F4FF0010E0260A6D00022FC
:1005D00043F644030292C4F202031A6843F600444D
:1005E00042F480421A601A68C4F2010402F48042A4
:1005F0000292029A28F003024FF6084B2244CFF6EB
:10060000FF7B52F80B300AF00C070F26BE4023EA9E
:10061000060C019B009E092B38BF1E4606FA07F701
:1006200047EA0C0342F80B3022684B6842EA09079C
:10063000DE0358BF22EA0907276062689E0342EA88
:10064000090758BF22EA09076760A268DE0242EA8A
:10065000090758BF22EA0907A76043F60C47C4F20E
:1006600001073A689B0242EA090358BF22EA0903DC
:100670003B6053E703B0BDE8F08F0000006908401D
:1006800018BF012070470000002A08BF09048161DB
:100690007047000040F27000C2F20000006870472E
:1006A00040F2040040F27001C2F20000C2F2000108
:1006B00000780A68104408607047000080B543F66F
:1006C0000040C4F20200016841F400710160016859
:1006D00041F480610160016841F480710160032090
:1006E00000F060F80F2000F005F800F02BF8002073
:1006F00080BD0000B0B540F20402C2F2000240F238
:1007000000011278C2F200014FF47A730968B3FB5A
:10071000F2F20446B1FBF2F1084600F0CFFA0F2CDA
:100720004FF001050CD858B94FF0FF302146002298
:10073000002500F027F840F20800C2F20000046033
:100740002846B0BD82B0002043F640010190C4F2BB
:1007500002014A6842F480424A604A6802F48042D8
:100760000192019A0090086840F080500860086883
:1007700000F080500090009802B0704780B500F003
:1007800099FB80BD70B514460D46064600F0A2FBED
:100790002946224600F0FCFA0146304600F0A2FB52
:1007A00070BD000080B500F0AFFB80BD2DE9F041C9
:1007B000002800F08B8043F60808C4F202080446C3
:1007C000D8F8F8030D4600F00F00884207D288F8E9
:1007D000F853D8F8F80300F00F00A84276D120684B
:1007E000810717D5410705D5D8F8001041F4E0512D
:1007F000C8F80010010705D5D8F8001041F4604191
:10080000C8F80010D8F80010A26821F0F0011143D8
:10081000C8F80010C0073FD1D8F8F80300F00F0067
:10082000A84207D988F8F853D8F8F80300F00F0069
:10083000A8424BD12068410707D5D8F80010E268DC
:1008400021F4E0511143C8F80010000708D5D8F88A
:100850000000216920F4604040EAC100C8F80000AF
:1008600000F054F8D8F8001040F68072C1F303117C
:10087000C0F60002515C40F2000220FA01F140F2A1
:100880000800C2F200000068C2F200021160FFF727
:1008900031FF0020BDE8F0816068811E022907D287
:1008A00058F8081C89015CBF0120BDE8F08110E008
:1008B000012807D158F8081C89035CBF0120BDE856
:1008C000F08106E058F8081C890702D40120BDE831
:1008D000F081D8F8001021F003010843C8F80000A7
:1008E000FFF7D8FE064641F2883700BFD8F800006F
:1008F000616800F00C00B0EB810F8DD0FFF7CAFEED
:10090000801BB842F2D90320BDE8F08110B543F650
:100910000404C4F20204606800F00C0008280AD045
:10092000042819BF42F20040C0F2F40047F640002C
:10093000C0F27D1010BD206821682368490247F687
:100940004001C0F27D1100F03F02C3F388105CBF8C
:1009500042F20041C0F2F401A1FB00010023FFF7C5
:1009600095FC21680222C1F3014102EB4101B0FB79
:10097000F1F010BD2DE9F04182B0002800F0A28016
:100980000446007843F60006C007C4F2020643D0CE
:10099000B06800F00C00042805D1306880033BD516
:1009A0006068C8BB8EE0B06800F00C00082802D177
:1009B00070684002F1D46568B5F5A02F0AD0B5F58E
:1009C000803F0BD0306820F480303060306820F4F5
:1009D000802006E0306840F480203060306840F4C9
:1009E00080303060FFF756FE002D054611D000BF65
:1009F0003068800310D4FFF74DFE401B6428F7D900
:100A000022E100BFFFF746FE401B64284FF00300C1
:100A100055D830688003F5D4207880071AD5B0689F
:100A200010F00C0F09D0B06800F00C00082840F05E
:100A30008A807068400200F186803068800702D5A5
:100A4000E06801283ED13068216920F0F80040EAD2
:100A5000C10030602078000738D4207840074CD49B
:100A6000A5695DB3B06800F00C00082840F09E80D6
:100A7000012D27D07068E16900F480028A4221D1FB
:100A8000216A00F03F028A421CD147F6C071626AB7
:100A90000140B1EB821F15D1A26A0023CFF6FF738C
:100AA00003EBC23200F440316FF30F02914209D1DF
:100AB000E16A00F07060B0EB016F03D1002002B07A
:100AC000BDE8F081012002B0BDE8F0816069002836
:100AD00040F20000C4F2472057D00121C0F8801E28
:100AE000FFF7D8FD054600BF706F8007B5D4FFF74C
:100AF000D1FD401B0228F7D9A6E0306C10F08058D9
:100B00000AD100200190306C40F080503064306C8D
:100B100000F080500190019847F20007C4F20007EE
:100B20003868C00524D4386840F480703860FFF716
:100B3000B1FD05463868C0051AD4FFF7ABFD401B70
:100B40000228F7D980E0E068002851D00020C4F2E4
:100B5000472001210160FFF79DFD054630688007B1
:100B60003FF571AFFFF796FD401B0228F6D96BE009
:100B7000A568052D50D0012D52D0306F20F0010016
:100B80003067306F20F004004DE00021C0F8801E77
:100B9000FFF780FD054600BF706F80077FF55DAFF2
:100BA000FFF778FD401B0228F6D94DE00027C4F27C
:100BB000472700203866FFF76DFD022D05460BD153
:100BC0003068800158D5FFF765FD401B02284FF0C3
:100BD0000300F5D973E700BF306880017FF56EAF81
:100BE000FFF758FD401B02284FF00300F4D966E7D9
:100BF0000020C4F2472000210160FFF74BFD0546AD
:100C0000306880077FF526AFFFF744FD401B0228C0
:100C10004FF00300F4D952E7306F40F00400306722
:100C2000306F40F001003067FFF734FD002D0546BE
:100C300041F2883714D000BF306F800713D4FFF71C
:100C400029FD401BB842F7D9032002B0BDE8F0816E
:100C5000FFF720FD401BB8424FF003003FF62FAFD7
:100C6000306F8007F4D4B8F1000F7FF4F9AE306C28
:100C700020F080503064F3E604F11C052FCD0843CA
:100C80000021CFF6FF7140EA821001EBC3316FF310
:100C90000F0140EA05600843706001203866FFF7E5
:100CA000F9FC0446306880013FF508AFFFF7F2FC1D
:100CB000001B02284FF00300F4D900E780B500F0D4
:100CC00081F880BDFEE70000F0B587B0002643F64E
:100CD00030000696CDE90466CDE902660196C4F2BD
:100CE0000200016841F6004441F00401016001681E
:100CF000C4F2020401F00401019101990196016816
:100D0000012241F0800101600168012701F08001AA
:100D1000019101990196016841F0010101600068AB
:100D20004FF4406100F00100019001982046FFF768
:100D3000ABFC4FF4005002904FF4441002ADCDE9EB
:100D40000307A4F5A0502946FFF7CCFB4FF48060C1
:100D5000CDE9020720462946CDE90466FFF7C2FB2C
:100D60004FF40060CDE9020720462946CDE904761C
:100D7000FFF7B8FB282001210022FFF703FD282000
:100D8000FFF7FCFC07B0F0BDFEE70000FEE7000047
:100D900000F0070080F00703042B28BF04234FF066
:100DA000FF3C03380CFA03F338BF0020994381401D
:100DB0000CFA00F022EA0000084370477047000078
:100DC00070470000B0B501380024B4EB106F1CBFB1
:100DD0000120B0BD4EF21005CEF2000568604FF064
:100DE000FF300F2100F07EF80720AC60286020461D
:100DF000B0BD000080B5FFF753FC80BD70B592B068
:100E000006AC20463021FFF7B9FA002543F6400032
:100E10000595CDE90355CDE901550095C4F20200D1
:100E20000168022641F080510160006800F08050A6
:100E30000090009847F200000095C4F2000001689D
:100E400066F38F310160006800F440400090009824
:100E50000120099010200A9008200E908020CDE9F2
:100E60000F060420119020460696CDE90C65FFF789
:100E700081FD88B90F20CDE901064FF4A050049000
:100E80004FF48050059001A804210395FFF78EFCD4
:100E9000002804BF12B070BDFFF7DEFA4EF688508E
:100EA000CEF20000016841F470010160704700005B
:100EB000FEE70000002848BF704700F01F01012234
:100EC00002FA01F14EF200124009CEF2000242F89D
:100ED000201070474EF60C50CEF200000068C0F3B0
:100EE000022070474EF6145300F00F02CEF20003BA
:100EF00009011A4400F16043B0F1FF3FC8BF03F598
:100F000064421170704700004EF60C51CEF20001A1
:100F10000A684FF6FF031A4060F30A2242F080602D
:100F200040F0FD700860704741F60044C4F20204CE
:100F3000FFF7C4FBFFF762FFFFF7C6FE20464FF442
:100F400000610022FFF7A0FB4FF47A70FFF78AFAE6
:100F500020464FF400610122FFF796FB4FF47A70B0
:100F6000FFF780FAEAE7F1EE100A4FF6FF71C0F2E0
:100F7000C03120EA010040F04070E1EE100A7047F5
:100F80000000000000000000010203040607080939
:100F9000B00F00080000002010000000E801000869
:100FA000C00F0008100000206806000004020008BE
:100FB0000024F40001000000100000000000000008
:04000005080001AD41
:00000001FF
